:080000001FC04AC0FDCFFCCF78
:10000800FBCFFACFF9CFF8CFF7CFF6CFF5CFF4CFB4
:10001800F3CFF2CFF1CFF0CFEFCFEECFEDCF00009F
:10002800C8000000010101040208080004002600BD
:10003800040060012E000000F894EE27ECBBF1E00C
:10004800FBBFEBBFE5BF8DE0A2E0BB27ED938A9530
:10005800E9F780E094E0A0E6ED930197E9F7E2E3A1
:10006800F0E085919591009761F0A591B591059083
:100078001590BF01F00105900D920197E1F7FB0182
:10008800F0CFEFE5EDBFE4E0EEBFC0E6D1E00EC093
:10009800EA93EFB7EA93E1E0EA1511F4AA2402C063
:1000A800E1E0AE2EE991EFBFE9911895EFEFE4BBDF
:1000B800E0E0E5BBE1BBE2BBEBB7E064EBBFE5B773
:1000C800E260E5BFEAB7E064EABF7894AA20F1F3FA
:1000D800F4013A964F0186149704D8F1442039F474
:1000E800E3E05E1610F4539401C0552407C0E0E025
:1000F800E51510F45A9402C0E3E05E2EBB2089F4A3
:10010800E8ECF0E06E167F0620F4F30132963F012A
:1001180007C0E1E0BE2E442011F44E2E01C0442455
:1001280010C0E4E1F0E0E615F70520F4F30132979A
:100138003F0107C0BB24442019F4E1E04E2E01C062
:100148004424E52DF0E0E05AFE4FE081E5BB882429
:100158009924AAE0B0E002D0B9CFFFCF109639F0C9
:10016800A8958AEF90E00197F1F71197C9F70895DC
:00000001FF
