:040000000C94490013
:100004000C9400000C9400000C9400000C9400006C
:100014000C9400000C949E000C9400000C940000BE
:100024000C9475000C9400000C9400000C940000D7
:100034000C9400000C9400000C9400000C9400003C
:100044000C9400000C9400000C9400000C9400002C
:100054001027E80364000A000100001000011000EA
:100064000100467265713A20256420487A003248BE
:100074007A3C467265713C36304B487A000080C049
:100084000F006002720002006F0282000000F89408
:10009400EE27ECBBF1E0F5BFE5BF8DE0A2E0BB27A6
:1000A400ED938A95E9F780E098E0A0E6ED93019757
:1000B400E9F7E4E8F0E085919591009761F0A59166
:1000C400B59105901590BF01F00105900D9201972F
:1000D400E1F7FB01F0CFEFE5EDBFE8E0EEBFC0E6EE
:1000E400D2E00C94AA000A921A926A937A938A93A1
:1000F4009A93AA93BA93EA93FA93EFB7EA93F20125
:10010400662777270E94F603A0E0B4E284EF9FE31A
:100114000E9424040E94BD033F0144245524E99114
:10012400EFBFF991E991B991A99199918991799147
:100134006991199009901895EA93FA93EFB7EA93A5
:10014400F20131962F01E991EFBFF991E9911895E8
:10015400A097EFEFE4BBE0E0E5BBE1BBE2BBEFEF70
:10016400E7BBE0E0E8BBA0E18CD0E0E0EFBDE3E476
:10017400EEBDE4E2E9BF78944CD0FE01FA93EA9331
:10018400E6E6F0E0FA93EA93F301662777270E9404
:100194008F0484E00E9431032896DE0161D0E0E000
:1001A400EA93A1E029D0A0E6B2E05AD0A0EDB7E0EE
:1001B4000E948603E1CFFFCFAA93EBB3EF70AE2F7B
:1001C400E881E07FEA2BEBBB8DE08A95F1F7DA9AC0
:1001D4008DE08A95F1F7DA988DE08A95F1F789C078
:1001E400AA93A881E9DFE881E295E883A881E4DFA6
:1001F40085E88A95F1F77DC0AA93E881F0E0E1599A
:10020400FD4FE081A981AE0FEBDF998088802296B3
:100214000895A2E0E5DFA3E0B0E00E948603ACE02D
:10022400DFDFA1E0DDDFA3E0B0E00E948603E0E0D1
:100234008E2E9E2E0895AA93A881AA3011F09B14A5
:1002440048F0E0E0EA938394A82DD6DFA881AA3091
:1002540009F44FC09394D89AA881C2DFD89849C0B2
:10026400BA93AA931A93A981BA81ED91A983BA8307
:100274001E2FE03019F0A12FDEDFF5CF1881239671
:100284000895AA93EAB3E06FEABBD29AD09AD19ABE
:10029400DA98D898D998B880E881E058E093710248
:1002A400E881E054E0937202A4E1B0E00E94860386
:1002B400A0E382DF88EC90E00197F1F7A0E37CDF14
:1002C40088EC90E00197F1F7A0E376DF88EC90E00A
:1002D4000197F1F7A0E270DF88EC90E00197F1F765
:1002E400A8E27EDFA4E07CDFA5E87ADFA6E078DF81
:1002F40090DF21960895BA93AA931A930A93AA8138
:10030400BB8112960E948704309759F1AA81BB8160
:1003140014960E9487048F01309761F00230E0E068
:100324001E0798F0F80131978F01AA81BB811496BA
:10033400ED93FC93AA81BB811296ED91FD913196C8
:10034400FE93EE933197AC81A083AA81BB810E9476
:100354008704FF232AF0ED91FD913196FE93EE93ED
:1003640006C0AA81BB81EFEFFFEFED93FC931981E7
:10037400088125960895BA93AA9326970E94940417
:1003840010E0AC85BD85E0E0F0E0ED93FC93EA89F4
:10039400FB893196EA8BFB8B3197E4912E2FE03069
:1003A40009F455C1E12FE03059F4253211F411E07C
:1003B40006C02A93AD85BE85EF85F889099546C1A7
:1003C400E130C9F4253239F42A93AD85BE85EF8531
:1003D400F88909953AC112E040E000E02D3211F4A9
:1003E40001E034C12B3211F44BE230C1203211F45C
:1003F40040E22CC102C0E23039F450E013E0203373
:1004040011F4006823C103C0E33009F01FC1203395
:1004140010F02A3308F007C0AAE05A9F502DE22FAB
:10042400E0535E0F13C1E22FE33669F4E889F989DA
:100434003497E88BF98BA481AA93AD85BE85EF85AB
:10044400F889099502C1E33791F4E889F989349769
:10045400E88BF98BA889B98914960E948704EE83E6
:10046400FF83AE81BF810E946D031E2F14C0E0374D
:10047400B1F4E889F9893497E88BF98BA889B989AB
:1004840014960E948704EE83FF83AE81BF810E948D
:1004940079031E2F086002600F7730E042C0E43613
:1004A40011F0E93611F4046002C0E53731F4E4E5F3
:1004B400F0E0EE83FF8315E00CC0E83511F408602A
:1004C40003C0E83709F0C1C0EEE5F0E0EE83FF8336
:1004D40014E002FF1AC0E889F9893497E88BF98B94
:1004E400A889B98914960E948704EA87FB87AB859B
:1004F400AA232AF40E947604EA87FB874DE240305F
:1005040011F01F5F01C00B7F0CC0E889F989349793
:10051400E88BF98BA889B98914960E948704EA8725
:10052400FB8700FD15C0151798F407FF08C002FFEC
:1005340004C00B7F242F115001C020E301C020E22E
:100544002A93AD85BE85EF85F88909955150EBCF87
:10055400312F01FF1BC03030C1F003FF06C0EE8114
:10056400FF812591EE83FF8305C0AE81BF812D916C
:10057400AE83BF832A93AD85BE85EF85F88909953F
:10058400503009F051503150E6CF52C020E3EE8193
:10059400FF810E948B04E887F987EE81FF81329600
:1005A400EE83FF83E885F985AA85BB85AE17BF076F
:1005B40050F02F5FA885B985EA85FB85EA1BFB0B04
:1005C400EA87FB87EFCF2A3328F003FF02C0295FB5
:1005D40001C0295D04FD1DC0213320F4A885B9851F
:1005E400119709F409C0531710F000FF01C01AC095
:1005F40020E207FF0EC020E3006102FF0AC00B7F68
:100604004A93AD85BE85EF85F8890995503009F088
:1006140051502A93AD85BE85EF85F88909955030F0
:1006240009F051503150A885B985129708F0AECF22
:1006340000FF0BC0503049F05150E0E2EA93AD8521
:10064400BE85EF85F8890995F5CF10E0A0CEAC857D
:10065400BD850E9487040E949B0464960895FF92BE
:10066400F82E26970E949604DE011C960E947204BE
:100674000E948704309719F4EFEFFFEF27C0DE01E3
:1006840016960E9472048D01DE011C960E9472046B
:100694000E948704EE83FF83E0E0E887E987DE01B8
:1006A4001A960E9472040E948704FA93EA931A939A
:1006B4000A93EDE7F1E0FA93EA93DE011A965BDE22
:1006C4009F01AE81BF81E0E0EC93F9010E949D049B
:1006D4002A96FF900895BA93AA93A991B991EE2707
:1006E400FF276D91662311F03196FBCF0895BA93DD
:1006F400AA93AA27BB27E991F9910590002011F04C
:100704001196FBCFFD010895109639F0A89580ED60
:1007140097E00197F1F71197C9F70895552342F42B
:10072400503811F4E0FF04C03196691F791F6BF053
:1007340050E8572711F45F9373C05F3F31F0660FA1
:10074400000C57956795752F08955F9300200AF064
:1007540073C06CC050E8192E1522880F991F952775
:10076400550F879550E8072E0522660F771F7527CA
:10077400550F67950895689401C0E8945F93F2DF7C
:10078400703818F07F3F08F44BC056E1571BAAF4A9
:10079400519558300EF4593030F0EFEFFFEF6FEF12
:1007A4007FE777F91AC077275523B9F0EE0FFF1FBB
:1007B400661F771F5A95D1F710C07727583028F055
:1007C400EF2FF62F672F5850F9CF552331F0769538
:1007D4006795F795E7955A95D1F700200AF488D0E4
:1007E4005F910895689401C0E89430976040704028
:1007F400B1F0002426F0772312F4009479D0172E58
:100804007EE1112032F07A95EE0FFF1F661F111C56
:10081400F9CFEF2FF62F612D5F938ADF5F91089553
:10082400EE27FF27662777275F910895EFEFFFEF05
:100834006FE77FEF5F910895EFEFFFEF6FE77FE7DB
:100844005F9108955F9386DF703851F3903841F3D8
:1008540001240894791F23F41CF300203AF3ECCF0D
:100864000F921F932F933F934F931127222799277A
:10087400689FA0018F9F302D410D591F6B9F300D34
:10088400411D591F8E9F27D0BF9F25D06A9F23D01B
:10089400BE9F1DD0AF9F1BD0AE9F110D291F391FC6
:1008A400491F591FE32FF42F652F522F4F913F916A
:1008B4002F911F910F9066232AF0550FEE1FFF1FF3
:1008C400661F02C073954BF229DF5F910895100DE6
:1008D400211D391F02C0200D311D491F591F0895C4
:1008E4000024AF0DB01D0895F195E195F0400895F1
:1008F400F09560957095E195FF4F6F4F7F4F089588
:100904006F2F660F660B762F0895ED91FC9111976A
:1009140008950590F491E02D08957A936A93FA93DB
:10092400EA9308955A934A933A932A931A930A930B
:1009340008955D814C813B812A8119810881089544
:00000001FF
