:0800000017C0FECFFDCFFCCFBD
:10000800FBCFFACFF9CFF8CFF7CFF6CFF5CFF4CFB4
:10001800F3CFF2CFF1CFF0CFEFCFEECFEDCF80C05F
:100028000200600126000000F894EE27ECBBF1E026
:10003800FBBFEBBFE5BF8DE0A2E0BB27ED938A9540
:10004800E9F780E094E0A0E6ED930197E9F7E8E2AC
:10005800F0E085919591009761F0A591B591059093
:100068001590BF01F00105900D920197E1F7FB0192
:10007800F0CFEFE5EDBFE4E0EEBFC0E6D1E000C0B1
:100088002297EFEFE1BBE0E0E2BBA0E17AD0E0E04D
:10009800E98348D000E010E00A31E0E01E0734F4BC
:1000A800E02FEF5B97D00F5F1F4FF6CFA0EDB7E0C3
:1000B800A5D038D000E010E00A31E0E01E0734F4A3
:1000C800E02FEF5987D00F5F1F4FF6CFA0EDB7E0B5
:1000D80095D0DFCFFFCFAA93E2B3EF70AE2FE881C0
:1000E800E07FEA2BE2BB7CD0929A7AD0929878D0C3
:1000F8006FC0AA93A881EFDFE881E295E883A88121
:10010800EADF81E18A95F1F763C0AA93E881F0E01C
:10011800E05AFE4FE081A981AE0FEBDF598048809D
:1001280022960895A2E060D0ACE0E3DFA1E05CD0C5
:10013800E0E04E2E5E2E0895AA93A881AA3011F011
:10014800571440F0E0E0EA934394A42DDEDFA88141
:10015800AA30F1F15394909AA881CBDF909838C0D7
:10016800BA93AA931A93A981BA81ED91A983BA8304
:100178001E2FE03019F0A12FDFDFF5CF188123966D
:100188000895AA93E1B3E06FE1BB8A9A889A899AA5
:100198009298909891987880E881E058E09362016D
:1001A800E881E054E0936301A4E1B0E027D020D0D7
:1001B8001FD01ED0A0E28FDF81E28A95F1F7A8E276
:1001C80098DFA4E096DFA5E894DFA6E092DFAADF37
:1001D80021960895E883DE01C3DFA4E6B0E00EC0EF
:1001E80082E08A95F1F7089584DFA3E0B0E006C0C5
:1001F800A0E371DF81E28A95F1F70895109639F04E
:10020800A8958AEF90E00197F1F71197C9F708953B
:00000001FF
