:0400000022C0FECF4D
:10000400FDCFFCCFFBCFFACFF9CFF8CFF7CFF6CFA8
:10001400F5CFF4CFF3CFF2CFF1CFF0CFEFCFEECFD8
:10002400EDCF202048656C6C6F20576F726C642193
:10003400000080C00F006001260002006F0136003E
:100044000000F894EE27ECBBF1E0FBBFEBBFE5BF8B
:100054008DE0A2E0BB27ED938A95E9F780E094E078
:10006400A0E6ED930197E9F7E8E3F0E08591959137
:10007400009761F0A591B59105901590BF01F0012D
:1000840005900D920197E1F7FB01F0CFEFE5EDBF8D
:10009400E4E0EEBFC0E6D1E000C0EFEFE1BBE0E09A
:1000A400E2BBA0E15CD02CD0A0E6B1E047D0FFCF0A
:1000B400FFCFAA93E2B3EF70AE2FE881E07FEA2B83
:1000C400E2BB76D0929A74D0929872D06FC0AA9301
:1000D400A881EFDFE881E295E883A881EADF81E186
:1000E4008A95F1F763C0AA93E881F0E0E159FE4FE5
:1000F400E081A981AE0FEBDF5980488022960895F4
:10010400A2E05AD0ACE0E3DFA1E056D0E0E04E2E0E
:100114005E2E0895AA93A881AA3011F0571440F0D6
:10012400E0E0EA934394A42DDEDFA881AA30F1F144
:100134005394909AA881CBDF909838C0BA93AA932D
:100144001A93A981BA81ED91A983BA831E2FE03055
:1001540019F0A12FDFDFF5CF188123960895AA9314
:10016400E1B3E06FE1BB8A9A889A899A9298909851
:1001740091987880E881E058E0937101E881E05437
:10018400E0937201A4E1B0E021D01AD019D018D0C4
:10019400A0E28FDF81E28A95F1F7A8E298DFA4E07C
:1001A40096DFA5E894DFA6E092DFAADF2196089502
:1001B40082E08A95F1F708958ADFA3E0B0E006C0F3
:1001C400A0E377DF81E28A95F1F70895109639F07C
:1001D400A8958AEF90E00197F1F71197C9F7089570
:00000001FF
