:060000001CC047C0FDCF4B
:10000600FCCFFBCFFACFF9CFF8CFF7CFF6CFF5CFAE
:10001600F4CFF3CFF2CFF1CFF0CFEFCFEECFEDCFDE
:10002600000001040208020004002600040060012A
:1000360028000000F894EE27ECBBF1E0FBBFEBBF15
:10004600E5BF8DE0A2E0BB27ED938A95E9F780E056
:1000560094E0A0E6ED930197E9F7ECE2F0E08591F4
:100066009591009761F0A591B59105901590BF0106
:10007600F00105900D920197E1F7FB01F0CFEFE556
:10008600EDBFE4E0EEBFC0E6D1E00DC0EA93EFB706
:10009600EA93442019F4E1E04E2E01C04424E9918C
:1000A600EFBFE9911895EFEFE4BBE0E0E5BBE1BBFC
:1000B600E2BBEBB7E064EBBFE5B7E260E5BFEAB7EA
:1000C600E064EABF7894442039F4E3E05E1610F465
:1000D600539401C0552407C0E0E0E51510F45A9486
:1000E60002C0E3E05E2EE52DF0E0E05AFE4FE0812F
:1000F600E5BBA2E3B0E002D0E6CFFFCF109639F021
:10010600A8958AEF90E00197F1F71197C9F708953E
:00000001FF
